{
  "contractName": "CountryData",
  "abi": [
    {
      "inputs": [],
      "payable": false,
      "stateMutability": "nonpayable",
      "type": "constructor"
    },
    {
      "constant": true,
      "inputs": [
        {
          "internalType": "uint256",
          "name": "",
          "type": "uint256"
        }
      ],
      "name": "countries",
      "outputs": [
        {
          "internalType": "uint256",
          "name": "id",
          "type": "uint256"
        },
        {
          "internalType": "string",
          "name": "country",
          "type": "string"
        },
        {
          "internalType": "uint256",
          "name": "totalCO2",
          "type": "uint256"
        },
        {
          "internalType": "uint256",
          "name": "perCapCO2",
          "type": "uint256"
        },
        {
          "internalType": "uint256",
          "name": "envPerfIndex",
          "type": "uint256"
        },
        {
          "internalType": "uint256",
          "name": "envHealth",
          "type": "uint256"
        },
        {
          "internalType": "uint256",
          "name": "ecoVitality",
          "type": "uint256"
        },
        {
          "internalType": "uint256",
          "name": "changes",
          "type": "uint256"
        }
      ],
      "payable": false,
      "stateMutability": "view",
      "type": "function"
    },
    {
      "constant": true,
      "inputs": [],
      "name": "countryCount",
      "outputs": [
        {
          "internalType": "uint256",
          "name": "",
          "type": "uint256"
        }
      ],
      "payable": false,
      "stateMutability": "view",
      "type": "function"
    },
    {
      "constant": true,
      "inputs": [
        {
          "internalType": "string",
          "name": "",
          "type": "string"
        },
        {
          "internalType": "uint256",
          "name": "",
          "type": "uint256"
        }
      ],
      "name": "history",
      "outputs": [
        {
          "internalType": "uint256",
          "name": "id",
          "type": "uint256"
        },
        {
          "internalType": "string",
          "name": "country",
          "type": "string"
        },
        {
          "internalType": "uint256",
          "name": "totalCO2",
          "type": "uint256"
        },
        {
          "internalType": "uint256",
          "name": "perCapCO2",
          "type": "uint256"
        },
        {
          "internalType": "uint256",
          "name": "envPerfIndex",
          "type": "uint256"
        },
        {
          "internalType": "uint256",
          "name": "envHealth",
          "type": "uint256"
        },
        {
          "internalType": "uint256",
          "name": "ecoVitality",
          "type": "uint256"
        },
        {
          "internalType": "uint256",
          "name": "changes",
          "type": "uint256"
        }
      ],
      "payable": false,
      "stateMutability": "view",
      "type": "function"
    },
    {
      "constant": false,
      "inputs": [],
      "name": "genesis",
      "outputs": [],
      "payable": false,
      "stateMutability": "nonpayable",
      "type": "function"
    },
    {
      "constant": false,
      "inputs": [
        {
          "internalType": "string",
          "name": "name",
          "type": "string"
        },
        {
          "internalType": "uint256",
          "name": "total",
          "type": "uint256"
        },
        {
          "internalType": "uint256",
          "name": "perCap",
          "type": "uint256"
        },
        {
          "internalType": "uint256",
          "name": "EPI",
          "type": "uint256"
        },
        {
          "internalType": "uint256",
          "name": "EH",
          "type": "uint256"
        },
        {
          "internalType": "uint256",
          "name": "EV",
          "type": "uint256"
        }
      ],
      "name": "addCountry",
      "outputs": [],
      "payable": false,
      "stateMutability": "nonpayable",
      "type": "function"
    },
    {
      "constant": false,
      "inputs": [
        {
          "internalType": "uint256",
          "name": "id",
          "type": "uint256"
        },
        {
          "internalType": "string",
          "name": "name",
          "type": "string"
        },
        {
          "internalType": "uint256",
          "name": "total",
          "type": "uint256"
        },
        {
          "internalType": "uint256",
          "name": "perCap",
          "type": "uint256"
        },
        {
          "internalType": "uint256",
          "name": "EPI",
          "type": "uint256"
        },
        {
          "internalType": "uint256",
          "name": "EH",
          "type": "uint256"
        },
        {
          "internalType": "uint256",
          "name": "EV",
          "type": "uint256"
        }
      ],
      "name": "updateCountry",
      "outputs": [],
      "payable": false,
      "stateMutability": "nonpayable",
      "type": "function"
    },
    {
      "constant": false,
      "inputs": [
        {
          "internalType": "uint256",
          "name": "id",
          "type": "uint256"
        },
        {
          "internalType": "string",
          "name": "name",
          "type": "string"
        },
        {
          "internalType": "uint256",
          "name": "oldTotal",
          "type": "uint256"
        },
        {
          "internalType": "uint256",
          "name": "oldPerCap",
          "type": "uint256"
        },
        {
          "internalType": "uint256",
          "name": "oldEPI",
          "type": "uint256"
        },
        {
          "internalType": "uint256",
          "name": "oldEH",
          "type": "uint256"
        },
        {
          "internalType": "uint256",
          "name": "oldEV",
          "type": "uint256"
        },
        {
          "internalType": "uint256",
          "name": "numRevisions",
          "type": "uint256"
        }
      ],
      "name": "storeOldCountry",
      "outputs": [],
      "payable": false,
      "stateMutability": "nonpayable",
      "type": "function"
    }
  ],
  "bytecode": "0x60806040526000805534801561001457600080fd5b5061002361002860201b60201c565b6101d0565b604051806101000160405280600081526020016040518060400160405280600781526020017f416d65726963610000000000000000000000000000000000000000000000000081525081526020016064815260200160638152602001606281526020016061815260200160608152602001600081525060016000805481526020019081526020016000206000820151816000015560208201518160010190805190602001906100d892919061012b565b5060408201518160020155606082015181600301556080820151816004015560a0820151816005015560c0820151816006015560e082015181600701559050506000808154809291906001019190505550565b828054600181600116156101000203166002900490600052602060002090601f016020900481019282601f1061016c57805160ff191683800117855561019a565b8280016001018555821561019a579182015b8281111561019957825182559160200191906001019061017e565b5b5090506101a791906101ab565b5090565b6101cd91905b808211156101c95760008160009055506001016101b1565b5090565b90565b610d80806101df6000396000f3fe608060405234801561001057600080fd5b506004361061007d5760003560e01c8063978080581161005b578063978080581461033e578063a05430d5146104ad578063a7f0b3de146105af578063de72edd7146105b95761007d565b806308e9daa51461008257806355fb63241461015a578063711975c914610247575b600080fd5b6100ae6004803603602081101561009857600080fd5b81019080803590602001909291905050506105d7565b6040518089815260200180602001888152602001878152602001868152602001858152602001848152602001838152602001828103825289818151815260200191508051906020019080838360005b838110156101185780820151818401526020810190506100fd565b50505050905090810190601f1680156101455780820380516001836020036101000a031916815260200191505b50995050505050505050505060405180910390f35b610245600480360360c081101561017057600080fd5b810190808035906020019064010000000081111561018d57600080fd5b82018360208201111561019f57600080fd5b803590602001918460018302840111640100000000831117156101c157600080fd5b91908080601f016020809104026020016040519081016040528093929190818152602001838380828437600081840152601f19601f82011690508083019250505050505050919291929080359060200190929190803590602001909291908035906020019092919080359060200190929190803590602001909291905050506106b7565b005b61033c600480360360e081101561025d57600080fd5b81019080803590602001909291908035906020019064010000000081111561028457600080fd5b82018360208201111561029657600080fd5b803590602001918460018302840111640100000000831117156102b857600080fd5b91908080601f016020809104026020016040519081016040528093929190818152602001838380828437600081840152601f19601f8201169050808301925050505050505091929192908035906020019092919080359060200190929190803590602001909291908035906020019092919080359060200190929190505050610787565b005b6104016004803603604081101561035457600080fd5b810190808035906020019064010000000081111561037157600080fd5b82018360208201111561038357600080fd5b803590602001918460018302840111640100000000831117156103a557600080fd5b91908080601f016020809104026020016040519081016040528093929190818152602001838380828437600081840152601f19601f820116905080830192505050505050509192919290803590602001909291905050506108fe565b6040518089815260200180602001888152602001878152602001868152602001858152602001848152602001838152602001828103825289818151815260200191508051906020019080838360005b8381101561046b578082015181840152602081019050610450565b50505050905090810190601f1680156104985780820380516001836020036101000a031916815260200191505b50995050505050505050505060405180910390f35b6105ad60048036036101008110156104c457600080fd5b8101908080359060200190929190803590602001906401000000008111156104eb57600080fd5b8201836020820111156104fd57600080fd5b8035906020019184600183028401116401000000008311171561051f57600080fd5b91908080601f016020809104026020016040519081016040528093929190818152602001838380828437600081840152601f19601f820116905080830192505050505050509192919290803590602001909291908035906020019092919080359060200190929190803590602001909291908035906020019092919080359060200190929190505050610a0e565b005b6105b7610b58565b005b6105c1610c5b565b6040518082815260200191505060405180910390f35b6001602052806000526040600020600091509050806000015490806001018054600181600116156101000203166002900480601f0160208091040260200160405190810160405280929190818152602001828054600181600116156101000203166002900480156106895780601f1061065e57610100808354040283529160200191610689565b820191906000526020600020905b81548152906001019060200180831161066c57829003601f168201915b5050505050908060020154908060030154908060040154908060050154908060060154908060070154905088565b60405180610100016040528060005481526020018781526020018681526020018581526020018481526020018381526020018281526020016000815250600160008054815260200190815260200160002060008201518160000155602082015181600101908051906020019061072e929190610c61565b5060408201518160020155606082015181600301556080820151816004015560a0820151816005015560c0820151816006015560e082015181600701559050506000808154809291906001019190505550505050505050565b6000600160008981526020019081526020016000206002015490506000600160008a81526020019081526020016000206003015490506000600160008b81526020019081526020016000206004015490506000600160008c81526020019081526020016000206005015490506000600160008d81526020019081526020016000206006015490506000600160008e81526020019081526020016000206007015490506108398d8d888888888888610a0e565b6040518061010001604052808e81526020018d81526020018c81526020018b81526020018a815260200189815260200188815260200160018301815250600160008f81526020019081526020016000206000820151816000015560208201518160010190805190602001906108af929190610c61565b5060408201518160020155606082015181600301556080820151816004015560a0820151816005015560c0820151816006015560e0820151816007015590505050505050505050505050505050565b600282805160208101820180518482526020830160208501208183528095505050505050818154811061092d57fe5b906000526020600020906008020160009150915050806000015490806001018054600181600116156101000203166002900480601f0160208091040260200160405190810160405280929190818152602001828054600181600116156101000203166002900480156109e05780601f106109b5576101008083540402835291602001916109e0565b820191906000526020600020905b8154815290600101906020018083116109c357829003601f168201915b5050505050908060020154908060030154908060040154908060050154908060060154908060070154905088565b610a16610ce1565b6040518061010001604052808a81526020018981526020018881526020018781526020018681526020018581526020018481526020018381525090506002886040518082805190602001908083835b60208310610a885780518252602082019150602081019050602083039250610a65565b6001836020036101000a03801982511681845116808217855250505050505090500191505090815260200160405180910390208190806001815401808255809150509060018203906000526020600020906008020160009091929091909150600082015181600001556020820151816001019080519060200190610b0d929190610c61565b5060408201518160020155606082015181600301556080820151816004015560a0820151816005015560c0820151816006015560e08201518160070155505050505050505050505050565b604051806101000160405280600081526020016040518060400160405280600781526020017f416d6572696361000000000000000000000000000000000000000000000000008152508152602001606481526020016063815260200160628152602001606181526020016060815260200160008152506001600080548152602001908152602001600020600082015181600001556020820151816001019080519060200190610c08929190610c61565b5060408201518160020155606082015181600301556080820151816004015560a0820151816005015560c0820151816006015560e082015181600701559050506000808154809291906001019190505550565b60005481565b828054600181600116156101000203166002900490600052602060002090601f016020900481019282601f10610ca257805160ff1916838001178555610cd0565b82800160010185558215610cd0579182015b82811115610ccf578251825591602001919060010190610cb4565b5b509050610cdd9190610d26565b5090565b60405180610100016040528060008152602001606081526020016000815260200160008152602001600081526020016000815260200160008152602001600081525090565b610d4891905b80821115610d44576000816000905550600101610d2c565b5090565b9056fea265627a7a72315820661344516c81264745a1dfb96e9eae083deb076d37928d8fed200aa95d6f2f1564736f6c63430005100032",
  "source": "pragma solidity ^0.5.16;\n\ncontract CountryData {\n\n  uint public countryCount = 0;\n\n  struct Country {\n    uint id;\n    string country;\n    uint totalCO2 ;\n    uint perCapCO2;\n    uint envPerfIndex;\n    uint envHealth;\n    uint ecoVitality;\n    uint changes;\n  }\n\n  //uint == ID\n  mapping (uint => Country) public countries;\n  mapping (string => Country[]) public history;\n\n  constructor () public {\n    genesis();\n  }\n\n\n  function genesis() public {\n    countries[countryCount] = Country(0, \"America\", 100, 99, 98, 97, 96, 0);\n    countryCount++;\n  }\n\n\n  function addCountry(string memory name, uint total, uint perCap, uint EPI, uint EH, uint EV) public {\n\n    countries[countryCount] = Country(countryCount, name, total, perCap, EPI, EH, EV, 0);\n\n    countryCount ++;\n\n  }\n\n  function updateCountry(uint id, string memory name, uint total, uint perCap, uint EPI, uint EH, uint EV) public {\n\n    uint oldTotal = countries[id].totalCO2;\n    uint oldPerCap = countries[id].perCapCO2;\n    uint oldEPI = countries[id].envPerfIndex;\n    uint oldEH = countries[id].envHealth;\n    uint oldEV = countries[id].ecoVitality;\n    uint numRevisions = countries[id].changes;\n\n    storeOldCountry(id, name, oldTotal, oldPerCap, oldEPI, oldEH, oldEV, numRevisions);\n\n    countries[id] = Country(id, name, total, perCap, EPI, EH, EV, (numRevisions+1) );\n  }\n\n  function storeOldCountry(uint id, string memory name, uint oldTotal, uint oldPerCap, uint oldEPI, uint oldEH, uint oldEV, uint numRevisions) public {\n\n    Country memory countryHistory = Country(id, name, oldTotal, oldPerCap, oldEPI, oldEH, oldEV, numRevisions);\n\n    history[name].push(countryHistory);\n\n  }\n\n}\n",
  "sourcePath": "/Users/reuben/Desktop/work/blueVista/ethereum/climateth/contracts/countries.sol",
  "compiler": {
    "name": "solc",
    "version": "0.5.16+commit.9c3226ce.Emscripten.clang"
  },
  "schemaVersion": "3.0.22",
  "updatedAt": "2020-03-31T04:37:29.971Z",
  "networkType": "ethereum",
  "devdoc": {
    "methods": {}
  },
  "userdoc": {
    "methods": {}
  }
}