{
  "contractName": "CountryData",
  "abi": [
    {
      "inputs": [],
      "payable": false,
      "stateMutability": "nonpayable",
      "type": "constructor"
    },
    {
      "constant": true,
      "inputs": [
        {
          "internalType": "uint256",
          "name": "",
          "type": "uint256"
        }
      ],
      "name": "countries",
      "outputs": [
        {
          "internalType": "uint256",
          "name": "id",
          "type": "uint256"
        },
        {
          "internalType": "string",
          "name": "country",
          "type": "string"
        },
        {
          "internalType": "uint256",
          "name": "totalCO2",
          "type": "uint256"
        },
        {
          "internalType": "uint256",
          "name": "perCapCO2",
          "type": "uint256"
        },
        {
          "internalType": "uint256",
          "name": "envPerfIndex",
          "type": "uint256"
        },
        {
          "internalType": "uint256",
          "name": "envHealth",
          "type": "uint256"
        },
        {
          "internalType": "uint256",
          "name": "ecoVitality",
          "type": "uint256"
        },
        {
          "internalType": "uint256",
          "name": "changes",
          "type": "uint256"
        }
      ],
      "payable": false,
      "stateMutability": "view",
      "type": "function"
    },
    {
      "constant": true,
      "inputs": [],
      "name": "countryCount",
      "outputs": [
        {
          "internalType": "uint256",
          "name": "",
          "type": "uint256"
        }
      ],
      "payable": false,
      "stateMutability": "view",
      "type": "function"
    },
    {
      "constant": true,
      "inputs": [
        {
          "internalType": "string",
          "name": "",
          "type": "string"
        },
        {
          "internalType": "uint256",
          "name": "",
          "type": "uint256"
        }
      ],
      "name": "history",
      "outputs": [
        {
          "internalType": "uint256",
          "name": "id",
          "type": "uint256"
        },
        {
          "internalType": "string",
          "name": "country",
          "type": "string"
        },
        {
          "internalType": "uint256",
          "name": "totalCO2",
          "type": "uint256"
        },
        {
          "internalType": "uint256",
          "name": "perCapCO2",
          "type": "uint256"
        },
        {
          "internalType": "uint256",
          "name": "envPerfIndex",
          "type": "uint256"
        },
        {
          "internalType": "uint256",
          "name": "envHealth",
          "type": "uint256"
        },
        {
          "internalType": "uint256",
          "name": "ecoVitality",
          "type": "uint256"
        },
        {
          "internalType": "uint256",
          "name": "changes",
          "type": "uint256"
        }
      ],
      "payable": false,
      "stateMutability": "view",
      "type": "function"
    },
    {
      "constant": false,
      "inputs": [],
      "name": "genesis",
      "outputs": [],
      "payable": false,
      "stateMutability": "nonpayable",
      "type": "function"
    },
    {
      "constant": false,
      "inputs": [
        {
          "internalType": "string",
          "name": "name",
          "type": "string"
        },
        {
          "internalType": "uint256",
          "name": "total",
          "type": "uint256"
        },
        {
          "internalType": "uint256",
          "name": "perCap",
          "type": "uint256"
        },
        {
          "internalType": "uint256",
          "name": "EPI",
          "type": "uint256"
        },
        {
          "internalType": "uint256",
          "name": "EH",
          "type": "uint256"
        },
        {
          "internalType": "uint256",
          "name": "EV",
          "type": "uint256"
        }
      ],
      "name": "addCountry",
      "outputs": [],
      "payable": false,
      "stateMutability": "nonpayable",
      "type": "function"
    },
    {
      "constant": false,
      "inputs": [
        {
          "internalType": "uint256",
          "name": "id",
          "type": "uint256"
        },
        {
          "internalType": "string",
          "name": "name",
          "type": "string"
        },
        {
          "internalType": "uint256",
          "name": "total",
          "type": "uint256"
        },
        {
          "internalType": "uint256",
          "name": "perCap",
          "type": "uint256"
        },
        {
          "internalType": "uint256",
          "name": "EPI",
          "type": "uint256"
        },
        {
          "internalType": "uint256",
          "name": "EH",
          "type": "uint256"
        },
        {
          "internalType": "uint256",
          "name": "EV",
          "type": "uint256"
        }
      ],
      "name": "updateCountry",
      "outputs": [],
      "payable": false,
      "stateMutability": "nonpayable",
      "type": "function"
    },
    {
      "constant": false,
      "inputs": [
        {
          "internalType": "uint256",
          "name": "id",
          "type": "uint256"
        },
        {
          "internalType": "string",
          "name": "name",
          "type": "string"
        },
        {
          "internalType": "uint256",
          "name": "oldTotal",
          "type": "uint256"
        },
        {
          "internalType": "uint256",
          "name": "oldPerCap",
          "type": "uint256"
        },
        {
          "internalType": "uint256",
          "name": "oldEPI",
          "type": "uint256"
        },
        {
          "internalType": "uint256",
          "name": "oldEH",
          "type": "uint256"
        },
        {
          "internalType": "uint256",
          "name": "oldEV",
          "type": "uint256"
        },
        {
          "internalType": "uint256",
          "name": "numRevisions",
          "type": "uint256"
        }
      ],
      "name": "storeOldCountry",
      "outputs": [],
      "payable": false,
      "stateMutability": "nonpayable",
      "type": "function"
    },
    {
      "constant": true,
      "inputs": [
        {
          "internalType": "uint256",
          "name": "id",
          "type": "uint256"
        }
      ],
      "name": "returnCountryCount",
      "outputs": [
        {
          "internalType": "uint256",
          "name": "",
          "type": "uint256"
        }
      ],
      "payable": false,
      "stateMutability": "view",
      "type": "function"
    },
    {
      "constant": true,
      "inputs": [
        {
          "internalType": "uint256",
          "name": "index",
          "type": "uint256"
        },
        {
          "internalType": "string",
          "name": "name",
          "type": "string"
        }
      ],
      "name": "returnCountry",
      "outputs": [
        {
          "components": [
            {
              "internalType": "uint256",
              "name": "id",
              "type": "uint256"
            },
            {
              "internalType": "string",
              "name": "country",
              "type": "string"
            },
            {
              "internalType": "uint256",
              "name": "totalCO2",
              "type": "uint256"
            },
            {
              "internalType": "uint256",
              "name": "perCapCO2",
              "type": "uint256"
            },
            {
              "internalType": "uint256",
              "name": "envPerfIndex",
              "type": "uint256"
            },
            {
              "internalType": "uint256",
              "name": "envHealth",
              "type": "uint256"
            },
            {
              "internalType": "uint256",
              "name": "ecoVitality",
              "type": "uint256"
            },
            {
              "internalType": "uint256",
              "name": "changes",
              "type": "uint256"
            }
          ],
          "internalType": "struct CountryData.Country",
          "name": "",
          "type": "tuple"
        }
      ],
      "payable": false,
      "stateMutability": "view",
      "type": "function"
    }
  ],
  "bytecode": "0x6080604052600080553480156200001557600080fd5b50620000266200002c60201b60201c565b620001e0565b604051806101000160405280600081526020016040518060400160405280600781526020017f416d6572696361000000000000000000000000000000000000000000000000008152508152602001606481526020016063815260200160628152602001606181526020016060815260200160008152506001600080548152602001908152602001600020600082015181600001556020820151816001019080519060200190620000de92919062000131565b5060408201518160020155606082015181600301556080820151816004015560a0820151816005015560c0820151816006015560e082015181600701559050506000808154809291906001019190505550565b828054600181600116156101000203166002900490600052602060002090601f016020900481019282601f106200017457805160ff1916838001178555620001a5565b82800160010185558215620001a5579182015b82811115620001a457825182559160200191906001019062000187565b5b509050620001b49190620001b8565b5090565b620001dd91905b80821115620001d9576000816000905550600101620001bf565b5090565b90565b6111e380620001f06000396000f3fe608060405234801561001057600080fd5b50600436106100935760003560e01c806397808058116100665780639780805814610137578063a05430d51461016e578063a7f0b3de1461018a578063b7f1e37a14610194578063de72edd7146101c457610093565b806308e9daa514610098578063338d1a97146100cf57806355fb6324146100ff578063711975c91461011b575b600080fd5b6100b260048036036100ad9190810190610c1d565b6101e2565b6040516100c6989796959493929190610fdf565b60405180910390f35b6100e960048036036100e49190810190610c46565b6102c2565b6040516100f69190610fa2565b60405180910390f35b61011960048036036101149190810190610b28565b6103fd565b005b61013560048036036101309190810190610c9a565b6104cd565b005b610151600480360361014c9190810190610bc9565b610644565b604051610165989796959493929190610fdf565b60405180910390f35b61018860048036036101839190810190610d50565b610754565b005b610192610853565b005b6101ae60048036036101a99190810190610c1d565b610956565b6040516101bb9190610fc4565b60405180910390f35b6101cc61097b565b6040516101d99190610fc4565b60405180910390f35b6001602052806000526040600020600091509050806000015490806001018054600181600116156101000203166002900480601f0160208091040260200160405190810160405280929190818152602001828054600181600116156101000203166002900480156102945780601f1061026957610100808354040283529160200191610294565b820191906000526020600020905b81548152906001019060200180831161027757829003601f168201915b5050505050908060020154908060030154908060040154908060050154908060060154908060070154905088565b6102ca610981565b6002826040516102da9190610f8b565b908152602001604051809103902083815481106102f357fe5b90600052602060002090600802016040518061010001604052908160008201548152602001600182018054600181600116156101000203166002900480601f0160208091040260200160405190810160405280929190818152602001828054600181600116156101000203166002900480156103b05780601f10610385576101008083540402835291602001916103b0565b820191906000526020600020905b81548152906001019060200180831161039357829003601f168201915b505050505081526020016002820154815260200160038201548152602001600482015481526020016005820154815260200160068201548152602001600782015481525050905092915050565b6040518061010001604052806000548152602001878152602001868152602001858152602001848152602001838152602001828152602001600081525060016000805481526020019081526020016000206000820151816000015560208201518160010190805190602001906104749291906109c6565b5060408201518160020155606082015181600301556080820151816004015560a0820151816005015560c0820151816006015560e082015181600701559050506000808154809291906001019190505550505050505050565b6000600160008981526020019081526020016000206002015490506000600160008a81526020019081526020016000206003015490506000600160008b81526020019081526020016000206004015490506000600160008c81526020019081526020016000206005015490506000600160008d81526020019081526020016000206006015490506000600160008e815260200190815260200160002060070154905061057f8d8d888888888888610754565b6040518061010001604052808e81526020018d81526020018c81526020018b81526020018a815260200189815260200188815260200160018301815250600160008f81526020019081526020016000206000820151816000015560208201518160010190805190602001906105f59291906109c6565b5060408201518160020155606082015181600301556080820151816004015560a0820151816005015560c0820151816006015560e0820151816007015590505050505050505050505050505050565b600282805160208101820180518482526020830160208501208183528095505050505050818154811061067357fe5b906000526020600020906008020160009150915050806000015490806001018054600181600116156101000203166002900480601f0160208091040260200160405190810160405280929190818152602001828054600181600116156101000203166002900480156107265780601f106106fb57610100808354040283529160200191610726565b820191906000526020600020905b81548152906001019060200180831161070957829003601f168201915b5050505050908060020154908060030154908060040154908060050154908060060154908060070154905088565b61075c610981565b6040518061010001604052808a81526020018981526020018881526020018781526020018681526020018581526020018481526020018381525090506002886040516107a89190610f8b565b908152602001604051809103902081908060018154018082558091505090600182039060005260206000209060080201600090919290919091506000820151816000015560208201518160010190805190602001906108089291906109c6565b5060408201518160020155606082015181600301556080820151816004015560a0820151816005015560c0820151816006015560e08201518160070155505050505050505050505050565b604051806101000160405280600081526020016040518060400160405280600781526020017f416d65726963610000000000000000000000000000000000000000000000000081525081526020016064815260200160638152602001606281526020016061815260200160608152602001600081525060016000805481526020019081526020016000206000820151816000015560208201518160010190805190602001906109039291906109c6565b5060408201518160020155606082015181600301556080820151816004015560a0820151816005015560c0820151816006015560e082015181600701559050506000808154809291906001019190505550565b6000806001600084815260200190815260200160002060070154905080915050919050565b60005481565b60405180610100016040528060008152602001606081526020016000815260200160008152602001600081526020016000815260200160008152602001600081525090565b828054600181600116156101000203166002900490600052602060002090601f016020900481019282601f10610a0757805160ff1916838001178555610a35565b82800160010185558215610a35579182015b82811115610a34578251825591602001919060010190610a19565b5b509050610a429190610a46565b5090565b610a6891905b80821115610a64576000816000905550600101610a4c565b5090565b90565b600082601f830112610a7c57600080fd5b8135610a8f610a8a82611091565b611064565b91508082526020830160208301858383011115610aab57600080fd5b610ab6838284611136565b50505092915050565b600082601f830112610ad057600080fd5b8135610ae3610ade826110bd565b611064565b91508082526020830160208301858383011115610aff57600080fd5b610b0a838284611136565b50505092915050565b600081359050610b2281611189565b92915050565b60008060008060008060c08789031215610b4157600080fd5b600087013567ffffffffffffffff811115610b5b57600080fd5b610b6789828a01610abf565b9650506020610b7889828a01610b13565b9550506040610b8989828a01610b13565b9450506060610b9a89828a01610b13565b9350506080610bab89828a01610b13565b92505060a0610bbc89828a01610b13565b9150509295509295509295565b60008060408385031215610bdc57600080fd5b600083013567ffffffffffffffff811115610bf657600080fd5b610c0285828601610a6b565b9250506020610c1385828601610b13565b9150509250929050565b600060208284031215610c2f57600080fd5b6000610c3d84828501610b13565b91505092915050565b60008060408385031215610c5957600080fd5b6000610c6785828601610b13565b925050602083013567ffffffffffffffff811115610c8457600080fd5b610c9085828601610abf565b9150509250929050565b600080600080600080600060e0888a031215610cb557600080fd5b6000610cc38a828b01610b13565b975050602088013567ffffffffffffffff811115610ce057600080fd5b610cec8a828b01610abf565b9650506040610cfd8a828b01610b13565b9550506060610d0e8a828b01610b13565b9450506080610d1f8a828b01610b13565b93505060a0610d308a828b01610b13565b92505060c0610d418a828b01610b13565b91505092959891949750929550565b600080600080600080600080610100898b031215610d6d57600080fd5b6000610d7b8b828c01610b13565b985050602089013567ffffffffffffffff811115610d9857600080fd5b610da48b828c01610abf565b9750506040610db58b828c01610b13565b9650506060610dc68b828c01610b13565b9550506080610dd78b828c01610b13565b94505060a0610de88b828c01610b13565b93505060c0610df98b828c01610b13565b92505060e0610e0a8b828c01610b13565b9150509295985092959890939650565b6000610e25826110f4565b610e2f8185611121565b9350610e3f818560208601611145565b80840191505092915050565b6000610e56826110e9565b610e6081856110ff565b9350610e70818560208601611145565b610e7981611178565b840191505092915050565b6000610e8f826110e9565b610e998185611110565b9350610ea9818560208601611145565b610eb281611178565b840191505092915050565b600061010083016000830151610ed66000860182610f6d565b5060208301518482036020860152610eee8282610e4b565b9150506040830151610f036040860182610f6d565b506060830151610f166060860182610f6d565b506080830151610f296080860182610f6d565b5060a0830151610f3c60a0860182610f6d565b5060c0830151610f4f60c0860182610f6d565b5060e0830151610f6260e0860182610f6d565b508091505092915050565b610f768161112c565b82525050565b610f858161112c565b82525050565b6000610f978284610e1a565b915081905092915050565b60006020820190508181036000830152610fbc8184610ebd565b905092915050565b6000602082019050610fd96000830184610f7c565b92915050565b600061010082019050610ff5600083018b610f7c565b8181036020830152611007818a610e84565b90506110166040830189610f7c565b6110236060830188610f7c565b6110306080830187610f7c565b61103d60a0830186610f7c565b61104a60c0830185610f7c565b61105760e0830184610f7c565b9998505050505050505050565b6000604051905081810181811067ffffffffffffffff8211171561108757600080fd5b8060405250919050565b600067ffffffffffffffff8211156110a857600080fd5b601f19601f8301169050602081019050919050565b600067ffffffffffffffff8211156110d457600080fd5b601f19601f8301169050602081019050919050565b600081519050919050565b600081519050919050565b600082825260208201905092915050565b600082825260208201905092915050565b600081905092915050565b6000819050919050565b82818337600083830152505050565b60005b83811015611163578082015181840152602081019050611148565b83811115611172576000848401525b50505050565b6000601f19601f8301169050919050565b6111928161112c565b811461119d57600080fd5b5056fea365627a7a72315820940285d34cdbe1068d6d52360e1d6b4962e01580efd9e4b3ce470c44717c485f6c6578706572696d656e74616cf564736f6c63430005100040",
  "source": "pragma solidity ^0.5.16;\npragma experimental ABIEncoderV2;\n\ncontract CountryData {\n\n  uint public countryCount = 0;\n\n  struct Country {\n    uint id;\n    string country;\n    uint totalCO2 ;\n    uint perCapCO2;\n    uint envPerfIndex;\n    uint envHealth;\n    uint ecoVitality;\n    uint changes;\n  }\n\n  //uint == ID\n  mapping (uint => Country) public countries;\n  mapping (string => Country[]) public history;\n\n  constructor () public {\n    genesis();\n  }\n\n\n  function genesis() public {\n    countries[countryCount] = Country(0, \"America\", 100, 99, 98, 97, 96, 0);\n    countryCount++;\n  }\n\n\n  function addCountry(string memory name, uint total, uint perCap, uint EPI, uint EH, uint EV) public {\n\n    countries[countryCount] = Country(countryCount, name, total, perCap, EPI, EH, EV, 0);\n\n    countryCount ++;\n\n  }\n\n  function updateCountry(uint id, string memory name, uint total, uint perCap, uint EPI, uint EH, uint EV) public {\n\n    uint oldTotal = countries[id].totalCO2;\n    uint oldPerCap = countries[id].perCapCO2;\n    uint oldEPI = countries[id].envPerfIndex;\n    uint oldEH = countries[id].envHealth;\n    uint oldEV = countries[id].ecoVitality;\n    uint numRevisions = countries[id].changes;\n\n    storeOldCountry(id, name, oldTotal, oldPerCap, oldEPI, oldEH, oldEV, numRevisions);\n\n    countries[id] = Country(id, name, total, perCap, EPI, EH, EV, (numRevisions+1) );\n  }\n\n  function storeOldCountry(uint id, string memory name, uint oldTotal, uint oldPerCap, uint oldEPI, uint oldEH, uint oldEV, uint numRevisions) public {\n\n    Country memory countryHistory = Country(id, name, oldTotal, oldPerCap, oldEPI, oldEH, oldEV, numRevisions);\n\n    history[name].push(countryHistory);\n\n  }\n\n  function returnCountryCount (uint id) public view returns (uint) {\n\n    uint editCount = countries[id].changes;\n\n    return editCount;\n  }\n\n\n  function returnCountry (uint index, string memory name) public view returns (Country memory) {\n\n    return history[name][index];\n  }\n\n}\n",
  "sourcePath": "/Users/reuben/Desktop/work/blueVista/ethereum/climateth/contracts/countries.sol",
  "compiler": {
    "name": "solc",
    "version": "0.5.16+commit.9c3226ce.Emscripten.clang"
  },
  "schemaVersion": "3.0.22",
  "updatedAt": "2020-03-31T23:41:09.015Z",
  "networkType": "ethereum",
  "devdoc": {
    "methods": {}
  },
  "userdoc": {
    "methods": {}
  }
}