{
  "contractName": "CountryData",
  "abi": [
    {
      "inputs": [],
      "payable": false,
      "stateMutability": "nonpayable",
      "type": "constructor"
    },
    {
      "constant": true,
      "inputs": [
        {
          "internalType": "uint256",
          "name": "",
          "type": "uint256"
        }
      ],
      "name": "countries",
      "outputs": [
        {
          "internalType": "uint256",
          "name": "id",
          "type": "uint256"
        },
        {
          "internalType": "string",
          "name": "country",
          "type": "string"
        },
        {
          "internalType": "uint256",
          "name": "totalCO2",
          "type": "uint256"
        },
        {
          "internalType": "uint256",
          "name": "perCapCO2",
          "type": "uint256"
        },
        {
          "internalType": "uint256",
          "name": "envPerfIndex",
          "type": "uint256"
        },
        {
          "internalType": "uint256",
          "name": "envHealth",
          "type": "uint256"
        },
        {
          "internalType": "uint256",
          "name": "ecoVitality",
          "type": "uint256"
        }
      ],
      "payable": false,
      "stateMutability": "view",
      "type": "function"
    },
    {
      "constant": true,
      "inputs": [],
      "name": "countryCount",
      "outputs": [
        {
          "internalType": "uint256",
          "name": "",
          "type": "uint256"
        }
      ],
      "payable": false,
      "stateMutability": "view",
      "type": "function"
    },
    {
      "constant": false,
      "inputs": [],
      "name": "genesis",
      "outputs": [],
      "payable": false,
      "stateMutability": "nonpayable",
      "type": "function"
    },
    {
      "constant": false,
      "inputs": [
        {
          "internalType": "string",
          "name": "name",
          "type": "string"
        },
        {
          "internalType": "uint256",
          "name": "total",
          "type": "uint256"
        },
        {
          "internalType": "uint256",
          "name": "perCap",
          "type": "uint256"
        },
        {
          "internalType": "uint256",
          "name": "EPI",
          "type": "uint256"
        },
        {
          "internalType": "uint256",
          "name": "EH",
          "type": "uint256"
        },
        {
          "internalType": "uint256",
          "name": "EV",
          "type": "uint256"
        }
      ],
      "name": "addCountry",
      "outputs": [],
      "payable": false,
      "stateMutability": "nonpayable",
      "type": "function"
    }
  ],
  "bytecode": "0x60806040526000805534801561001457600080fd5b5061002361002860201b60201c565b6101be565b6040518060e00160405280600081526020016040518060400160405280600781526020017f416d657269636100000000000000000000000000000000000000000000000000815250815260200160648152602001606381526020016062815260200160618152602001606081525060016000805481526020019081526020016000206000820151816000015560208201518160010190805190602001906100d0929190610119565b5060408201518160020155606082015181600301556080820151816004015560a0820151816005015560c082015181600601559050506000808154809291906001019190505550565b828054600181600116156101000203166002900490600052602060002090601f016020900481019282601f1061015a57805160ff1916838001178555610188565b82800160010185558215610188579182015b8281111561018757825182559160200191906001019061016c565b5b5090506101959190610199565b5090565b6101bb91905b808211156101b757600081600090555060010161019f565b5090565b90565b6105a0806101cd6000396000f3fe608060405234801561001057600080fd5b506004361061004c5760003560e01c806308e9daa51461005157806355fb632414610122578063a7f0b3de1461020f578063de72edd714610219575b600080fd5b61007d6004803603602081101561006757600080fd5b8101908080359060200190929190505050610237565b6040518088815260200180602001878152602001868152602001858152602001848152602001838152602001828103825288818151815260200191508051906020019080838360005b838110156100e15780820151818401526020810190506100c6565b50505050905090810190601f16801561010e5780820380516001836020036101000a031916815260200191505b509850505050505050505060405180910390f35b61020d600480360360c081101561013857600080fd5b810190808035906020019064010000000081111561015557600080fd5b82018360208201111561016757600080fd5b8035906020019184600183028401116401000000008311171561018957600080fd5b91908080601f016020809104026020016040519081016040528093929190818152602001838380828437600081840152601f19601f8201169050808301925050505050505091929192908035906020019092919080359060200190929190803590602001909291908035906020019092919080359060200190929190505050610311565b005b6102176103cf565b005b6102216104c0565b6040518082815260200191505060405180910390f35b6001602052806000526040600020600091509050806000015490806001018054600181600116156101000203166002900480601f0160208091040260200160405190810160405280929190818152602001828054600181600116156101000203166002900480156102e95780601f106102be576101008083540402835291602001916102e9565b820191906000526020600020905b8154815290600101906020018083116102cc57829003601f168201915b5050505050908060020154908060030154908060040154908060050154908060060154905087565b6040518060e0016040528060005481526020018781526020018681526020018581526020018481526020018381526020018281525060016000805481526020019081526020016000206000820151816000015560208201518160010190805190602001906103809291906104c6565b5060408201518160020155606082015181600301556080820151816004015560a0820151816005015560c082015181600601559050506000808154809291906001019190505550505050505050565b6040518060e00160405280600081526020016040518060400160405280600781526020017f416d657269636100000000000000000000000000000000000000000000000000815250815260200160648152602001606381526020016062815260200160618152602001606081525060016000805481526020019081526020016000206000820151816000015560208201518160010190805190602001906104779291906104c6565b5060408201518160020155606082015181600301556080820151816004015560a0820151816005015560c082015181600601559050506000808154809291906001019190505550565b60005481565b828054600181600116156101000203166002900490600052602060002090601f016020900481019282601f1061050757805160ff1916838001178555610535565b82800160010185558215610535579182015b82811115610534578251825591602001919060010190610519565b5b5090506105429190610546565b5090565b61056891905b8082111561056457600081600090555060010161054c565b5090565b9056fea265627a7a723158202f77acddf92ff7364246d5ea22e0ffb34362ea595e9b78d9d6338dfec0761b6c64736f6c63430005100032",
  "source": "pragma solidity ^0.5.16;\n\ncontract CountryData {\n\n  uint public countryCount = 0;\n\n  struct Country {\n    uint id;\n    string country;\n    uint totalCO2 ;\n    uint perCapCO2;\n    uint envPerfIndex;\n    uint envHealth;\n    uint ecoVitality;\n  }\n\n  mapping (uint => Country) public countries;\n\n  constructor () public {\n    genesis();\n  }\n\n  function genesis() public {\n    countries[countryCount] = Country(0, \"America\", 100, 99, 98, 97, 96);\n    countryCount++;\n  }\n\n\n  function addCountry(string memory name, uint total, uint perCap, uint EPI, uint EH, uint EV) public {\n\n    countries[countryCount] = Country(countryCount, name, total, perCap, EPI, EH, EV);\n\n    countryCount ++;\n\n  }\n\n}\n",
  "sourcePath": "/Users/reuben/Desktop/work/blueVista/ethereum/climateth/contracts/countries.sol",
  "compiler": {
    "name": "solc",
    "version": "0.5.16+commit.9c3226ce.Emscripten.clang"
  },
  "schemaVersion": "3.0.22",
  "updatedAt": "2020-03-20T04:36:32.637Z",
  "networkType": "ethereum",
  "devdoc": {
    "methods": {}
  },
  "userdoc": {
    "methods": {}
  }
}